{
  "_format": "hh-sol-artifact-1",
  "contractName": "NFT",
  "sourceName": "contracts/NFT.sol",
  "abi": [
    {
      "inputs": [],
      "stateMutability": "nonpayable",
      "type": "constructor"
    },
    {
      "inputs": [],
      "name": "BasicNft__RoyalityFeesPercentageLimitExceed",
      "type": "error"
    },
    {
      "anonymous": false,
      "inputs": [
        {
          "indexed": true,
          "internalType": "address",
          "name": "owner",
          "type": "address"
        },
        {
          "indexed": true,
          "internalType": "address",
          "name": "approved",
          "type": "address"
        },
        {
          "indexed": true,
          "internalType": "uint256",
          "name": "tokenId",
          "type": "uint256"
        }
      ],
      "name": "Approval",
      "type": "event"
    },
    {
      "anonymous": false,
      "inputs": [
        {
          "indexed": true,
          "internalType": "address",
          "name": "owner",
          "type": "address"
        },
        {
          "indexed": true,
          "internalType": "address",
          "name": "operator",
          "type": "address"
        },
        {
          "indexed": false,
          "internalType": "bool",
          "name": "approved",
          "type": "bool"
        }
      ],
      "name": "ApprovalForAll",
      "type": "event"
    },
    {
      "anonymous": false,
      "inputs": [
        {
          "indexed": true,
          "internalType": "address",
          "name": "from",
          "type": "address"
        },
        {
          "indexed": true,
          "internalType": "address",
          "name": "to",
          "type": "address"
        },
        {
          "indexed": true,
          "internalType": "uint256",
          "name": "tokenId",
          "type": "uint256"
        }
      ],
      "name": "Transfer",
      "type": "event"
    },
    {
      "inputs": [
        {
          "internalType": "address",
          "name": "to",
          "type": "address"
        },
        {
          "internalType": "uint256",
          "name": "tokenId",
          "type": "uint256"
        }
      ],
      "name": "approve",
      "outputs": [],
      "stateMutability": "nonpayable",
      "type": "function"
    },
    {
      "inputs": [
        {
          "internalType": "address",
          "name": "owner",
          "type": "address"
        }
      ],
      "name": "balanceOf",
      "outputs": [
        {
          "internalType": "uint256",
          "name": "",
          "type": "uint256"
        }
      ],
      "stateMutability": "view",
      "type": "function"
    },
    {
      "inputs": [
        {
          "internalType": "uint256",
          "name": "tokenId",
          "type": "uint256"
        }
      ],
      "name": "getApproved",
      "outputs": [
        {
          "internalType": "address",
          "name": "",
          "type": "address"
        }
      ],
      "stateMutability": "view",
      "type": "function"
    },
    {
      "inputs": [
        {
          "internalType": "uint256",
          "name": "tokenId",
          "type": "uint256"
        }
      ],
      "name": "getFirstOwner",
      "outputs": [
        {
          "internalType": "address",
          "name": "",
          "type": "address"
        }
      ],
      "stateMutability": "view",
      "type": "function"
    },
    {
      "inputs": [
        {
          "internalType": "uint256",
          "name": "tokenId",
          "type": "uint256"
        }
      ],
      "name": "getRoyalityFees",
      "outputs": [
        {
          "internalType": "uint256",
          "name": "",
          "type": "uint256"
        }
      ],
      "stateMutability": "view",
      "type": "function"
    },
    {
      "inputs": [
        {
          "internalType": "address",
          "name": "owner",
          "type": "address"
        },
        {
          "internalType": "address",
          "name": "operator",
          "type": "address"
        }
      ],
      "name": "isApprovedForAll",
      "outputs": [
        {
          "internalType": "bool",
          "name": "",
          "type": "bool"
        }
      ],
      "stateMutability": "view",
      "type": "function"
    },
    {
      "inputs": [
        {
          "internalType": "string",
          "name": "_tokenURI",
          "type": "string"
        },
        {
          "internalType": "uint256",
          "name": "_noOfBips",
          "type": "uint256"
        }
      ],
      "name": "mint",
      "outputs": [
        {
          "internalType": "uint256",
          "name": "",
          "type": "uint256"
        }
      ],
      "stateMutability": "nonpayable",
      "type": "function"
    },
    {
      "inputs": [],
      "name": "name",
      "outputs": [
        {
          "internalType": "string",
          "name": "",
          "type": "string"
        }
      ],
      "stateMutability": "view",
      "type": "function"
    },
    {
      "inputs": [
        {
          "internalType": "uint256",
          "name": "tokenId",
          "type": "uint256"
        }
      ],
      "name": "ownerOf",
      "outputs": [
        {
          "internalType": "address",
          "name": "",
          "type": "address"
        }
      ],
      "stateMutability": "view",
      "type": "function"
    },
    {
      "inputs": [
        {
          "internalType": "address",
          "name": "from",
          "type": "address"
        },
        {
          "internalType": "address",
          "name": "to",
          "type": "address"
        },
        {
          "internalType": "uint256",
          "name": "tokenId",
          "type": "uint256"
        }
      ],
      "name": "safeTransferFrom",
      "outputs": [],
      "stateMutability": "nonpayable",
      "type": "function"
    },
    {
      "inputs": [
        {
          "internalType": "address",
          "name": "from",
          "type": "address"
        },
        {
          "internalType": "address",
          "name": "to",
          "type": "address"
        },
        {
          "internalType": "uint256",
          "name": "tokenId",
          "type": "uint256"
        },
        {
          "internalType": "bytes",
          "name": "data",
          "type": "bytes"
        }
      ],
      "name": "safeTransferFrom",
      "outputs": [],
      "stateMutability": "nonpayable",
      "type": "function"
    },
    {
      "inputs": [
        {
          "internalType": "address",
          "name": "operator",
          "type": "address"
        },
        {
          "internalType": "bool",
          "name": "approved",
          "type": "bool"
        }
      ],
      "name": "setApprovalForAll",
      "outputs": [],
      "stateMutability": "nonpayable",
      "type": "function"
    },
    {
      "inputs": [
        {
          "internalType": "bytes4",
          "name": "interfaceId",
          "type": "bytes4"
        }
      ],
      "name": "supportsInterface",
      "outputs": [
        {
          "internalType": "bool",
          "name": "",
          "type": "bool"
        }
      ],
      "stateMutability": "view",
      "type": "function"
    },
    {
      "inputs": [],
      "name": "symbol",
      "outputs": [
        {
          "internalType": "string",
          "name": "",
          "type": "string"
        }
      ],
      "stateMutability": "view",
      "type": "function"
    },
    {
      "inputs": [],
      "name": "tokenCount",
      "outputs": [
        {
          "internalType": "uint256",
          "name": "",
          "type": "uint256"
        }
      ],
      "stateMutability": "view",
      "type": "function"
    },
    {
      "inputs": [
        {
          "internalType": "uint256",
          "name": "tokenId",
          "type": "uint256"
        }
      ],
      "name": "tokenURI",
      "outputs": [
        {
          "internalType": "string",
          "name": "",
          "type": "string"
        }
      ],
      "stateMutability": "view",
      "type": "function"
    },
    {
      "inputs": [
        {
          "internalType": "address",
          "name": "from",
          "type": "address"
        },
        {
          "internalType": "address",
          "name": "to",
          "type": "address"
        },
        {
          "internalType": "uint256",
          "name": "tokenId",
          "type": "uint256"
        }
      ],
      "name": "transferFrom",
      "outputs": [],
      "stateMutability": "nonpayable",
      "type": "function"
    }
  ],
  "bytecode": "0x60806040523480156200001157600080fd5b506040518060400160405280600a81526020017f4d722c53204e46542773000000000000000000000000000000000000000000008152506040518060400160405280600381526020017f4d2f530000000000000000000000000000000000000000000000000000000000815250816000908051906020019062000096929190620000b8565b508060019080519060200190620000af929190620000b8565b505050620001cc565b828054620000c69062000197565b90600052602060002090601f016020900481019282620000ea576000855562000136565b82601f106200010557805160ff191683800117855562000136565b8280016001018555821562000136579182015b828111156200013557825182559160200191906001019062000118565b5b50905062000145919062000149565b5090565b5b80821115620001645760008160009055506001016200014a565b5090565b7f4e487b7100000000000000000000000000000000000000000000000000000000600052602260045260246000fd5b60006002820490506001821680620001b057607f821691505b602082108103620001c657620001c562000168565b5b50919050565b612ccd80620001dc6000396000f3fe608060405234801561001057600080fd5b506004361061010b5760003560e01c80636352211e116100a2578063a22cb46511610071578063a22cb465146102de578063b88d4fde146102fa578063c7ea4f1714610316578063c87b56dd14610346578063e985e9c5146103765761010b565b80636352211e1461024257806370a082311461027257806395d89b41146102a25780639f181b5e146102c05761010b565b8063095ea7b3116100de578063095ea7b3146101be57806323b872dd146101da57806340a58a32146101f657806342842e0e146102265761010b565b806301ffc9a714610110578063056b01ce1461014057806306fdde0314610170578063081812fc1461018e575b600080fd5b61012a60048036038101906101259190611d30565b6103a6565b6040516101379190611d78565b60405180910390f35b61015a60048036038101906101559190611f0f565b610488565b6040516101679190611f7a565b60405180910390f35b610178610595565b604051610185919061201d565b60405180910390f35b6101a860048036038101906101a3919061203f565b610627565b6040516101b591906120ad565b60405180910390f35b6101d860048036038101906101d391906120f4565b61066d565b005b6101f460048036038101906101ef9190612134565b610784565b005b610210600480360381019061020b919061203f565b6107e4565b60405161021d91906120ad565b60405180910390f35b610240600480360381019061023b9190612134565b610824565b005b61025c6004803603810190610257919061203f565b610844565b60405161026991906120ad565b60405180910390f35b61028c60048036038101906102879190612187565b6108ca565b6040516102999190611f7a565b60405180910390f35b6102aa610981565b6040516102b7919061201d565b60405180910390f35b6102c8610a13565b6040516102d59190611f7a565b60405180910390f35b6102f860048036038101906102f391906121e0565b610a19565b005b610314600480360381019061030f91906122c1565b610a2f565b005b610330600480360381019061032b919061203f565b610a91565b60405161033d9190611f7a565b60405180910390f35b610360600480360381019061035b919061203f565b610ab1565b60405161036d919061201d565b60405180910390f35b610390600480360381019061038b9190612344565b610bc3565b60405161039d9190611d78565b60405180910390f35b60007f80ac58cd000000000000000000000000000000000000000000000000000000007bffffffffffffffffffffffffffffffffffffffffffffffffffffffff1916827bffffffffffffffffffffffffffffffffffffffffffffffffffffffff1916148061047157507f5b5e139f000000000000000000000000000000000000000000000000000000007bffffffffffffffffffffffffffffffffffffffffffffffffffffffff1916827bffffffffffffffffffffffffffffffffffffffffffffffffffffffff1916145b80610481575061048082610c57565b5b9050919050565b60006103e88211156104c6576040517fd495f56700000000000000000000000000000000000000000000000000000000815260040160405180910390fd5b600860008154809291906104d9906123b3565b91905055506104ea33600854610cc1565b6104f660085484610cdf565b60405180604001604052808381526020013373ffffffffffffffffffffffffffffffffffffffff168152506007600060085481526020019081526020016000206000820151816000015560208201518160010160006101000a81548173ffffffffffffffffffffffffffffffffffffffff021916908373ffffffffffffffffffffffffffffffffffffffff160217905550905050600854905092915050565b6060600080546105a49061242a565b80601f01602080910402602001604051908101604052809291908181526020018280546105d09061242a565b801561061d5780601f106105f25761010080835404028352916020019161061d565b820191906000526020600020905b81548152906001019060200180831161060057829003601f168201915b5050505050905090565b600061063282610d53565b6004600083815260200190815260200160002060009054906101000a900473ffffffffffffffffffffffffffffffffffffffff169050919050565b600061067882610844565b90508073ffffffffffffffffffffffffffffffffffffffff168373ffffffffffffffffffffffffffffffffffffffff16036106e8576040517f08c379a00000000000000000000000000000000000000000000000000000000081526004016106df906124cd565b60405180910390fd5b8073ffffffffffffffffffffffffffffffffffffffff16610707610d9e565b73ffffffffffffffffffffffffffffffffffffffff161480610736575061073581610730610d9e565b610bc3565b5b610775576040517f08c379a000000000000000000000000000000000000000000000000000000000815260040161076c9061255f565b60405180910390fd5b61077f8383610da6565b505050565b61079561078f610d9e565b82610e5f565b6107d4576040517f08c379a00000000000000000000000000000000000000000000000000000000081526004016107cb906125f1565b60405180910390fd5b6107df838383610ef4565b505050565b60006007600083815260200190815260200160002060010160009054906101000a900473ffffffffffffffffffffffffffffffffffffffff169050919050565b61083f83838360405180602001604052806000815250610a2f565b505050565b600080610850836111ed565b9050600073ffffffffffffffffffffffffffffffffffffffff168173ffffffffffffffffffffffffffffffffffffffff16036108c1576040517f08c379a00000000000000000000000000000000000000000000000000000000081526004016108b89061265d565b60405180910390fd5b80915050919050565b60008073ffffffffffffffffffffffffffffffffffffffff168273ffffffffffffffffffffffffffffffffffffffff160361093a576040517f08c379a0000000000000000000000000000000000000000000000000000000008152600401610931906126ef565b60405180910390fd5b600360008373ffffffffffffffffffffffffffffffffffffffff1673ffffffffffffffffffffffffffffffffffffffff168152602001908152602001600020549050919050565b6060600180546109909061242a565b80601f01602080910402602001604051908101604052809291908181526020018280546109bc9061242a565b8015610a095780601f106109de57610100808354040283529160200191610a09565b820191906000526020600020905b8154815290600101906020018083116109ec57829003601f168201915b5050505050905090565b60085481565b610a2b610a24610d9e565b838361122a565b5050565b610a40610a3a610d9e565b83610e5f565b610a7f576040517f08c379a0000000000000000000000000000000000000000000000000000000008152600401610a76906125f1565b60405180910390fd5b610a8b84848484611396565b50505050565b600060076000838152602001908152602001600020600001549050919050565b6060610abc82610d53565b6000600660008481526020019081526020016000208054610adc9061242a565b80601f0160208091040260200160405190810160405280929190818152602001828054610b089061242a565b8015610b555780601f10610b2a57610100808354040283529160200191610b55565b820191906000526020600020905b815481529060010190602001808311610b3857829003601f168201915b505050505090506000610b666113f2565b90506000815103610b7b578192505050610bbe565b600082511115610bb0578082604051602001610b9892919061274b565b60405160208183030381529060405292505050610bbe565b610bb984611409565b925050505b919050565b6000600560008473ffffffffffffffffffffffffffffffffffffffff1673ffffffffffffffffffffffffffffffffffffffff16815260200190815260200160002060008373ffffffffffffffffffffffffffffffffffffffff1673ffffffffffffffffffffffffffffffffffffffff16815260200190815260200160002060009054906101000a900460ff16905092915050565b60007f01ffc9a7000000000000000000000000000000000000000000000000000000007bffffffffffffffffffffffffffffffffffffffffffffffffffffffff1916827bffffffffffffffffffffffffffffffffffffffffffffffffffffffff1916149050919050565b610cdb828260405180602001604052806000815250611471565b5050565b610ce8826114cc565b610d27576040517f08c379a0000000000000000000000000000000000000000000000000000000008152600401610d1e906127e1565b60405180910390fd5b80600660008481526020019081526020016000209080519060200190610d4e929190611c21565b505050565b610d5c816114cc565b610d9b576040517f08c379a0000000000000000000000000000000000000000000000000000000008152600401610d929061265d565b60405180910390fd5b50565b600033905090565b816004600083815260200190815260200160002060006101000a81548173ffffffffffffffffffffffffffffffffffffffff021916908373ffffffffffffffffffffffffffffffffffffffff160217905550808273ffffffffffffffffffffffffffffffffffffffff16610e1983610844565b73ffffffffffffffffffffffffffffffffffffffff167f8c5be1e5ebec7d5bd14f71427d1e84f3dd0314c0f7b2291e5b200ac8c7c3b92560405160405180910390a45050565b600080610e6b83610844565b90508073ffffffffffffffffffffffffffffffffffffffff168473ffffffffffffffffffffffffffffffffffffffff161480610ead5750610eac8185610bc3565b5b80610eeb57508373ffffffffffffffffffffffffffffffffffffffff16610ed384610627565b73ffffffffffffffffffffffffffffffffffffffff16145b91505092915050565b8273ffffffffffffffffffffffffffffffffffffffff16610f1482610844565b73ffffffffffffffffffffffffffffffffffffffff1614610f6a576040517f08c379a0000000000000000000000000000000000000000000000000000000008152600401610f6190612873565b60405180910390fd5b600073ffffffffffffffffffffffffffffffffffffffff168273ffffffffffffffffffffffffffffffffffffffff1603610fd9576040517f08c379a0000000000000000000000000000000000000000000000000000000008152600401610fd090612905565b60405180910390fd5b610fe6838383600161150d565b8273ffffffffffffffffffffffffffffffffffffffff1661100682610844565b73ffffffffffffffffffffffffffffffffffffffff161461105c576040517f08c379a000000000000000000000000000000000000000000000000000000000815260040161105390612873565b60405180910390fd5b6004600082815260200190815260200160002060006101000a81549073ffffffffffffffffffffffffffffffffffffffff02191690556001600360008573ffffffffffffffffffffffffffffffffffffffff1673ffffffffffffffffffffffffffffffffffffffff168152602001908152602001600020600082825403925050819055506001600360008473ffffffffffffffffffffffffffffffffffffffff1673ffffffffffffffffffffffffffffffffffffffff16815260200190815260200160002060008282540192505081905550816002600083815260200190815260200160002060006101000a81548173ffffffffffffffffffffffffffffffffffffffff021916908373ffffffffffffffffffffffffffffffffffffffff160217905550808273ffffffffffffffffffffffffffffffffffffffff168473ffffffffffffffffffffffffffffffffffffffff167fddf252ad1be2c89b69c2b068fc378daa952ba7f163c4a11628f55a4df523b3ef60405160405180910390a46111e88383836001611633565b505050565b60006002600083815260200190815260200160002060009054906101000a900473ffffffffffffffffffffffffffffffffffffffff169050919050565b8173ffffffffffffffffffffffffffffffffffffffff168373ffffffffffffffffffffffffffffffffffffffff1603611298576040517f08c379a000000000000000000000000000000000000000000000000000000000815260040161128f90612971565b60405180910390fd5b80600560008573ffffffffffffffffffffffffffffffffffffffff1673ffffffffffffffffffffffffffffffffffffffff16815260200190815260200160002060008473ffffffffffffffffffffffffffffffffffffffff1673ffffffffffffffffffffffffffffffffffffffff16815260200190815260200160002060006101000a81548160ff0219169083151502179055508173ffffffffffffffffffffffffffffffffffffffff168373ffffffffffffffffffffffffffffffffffffffff167f17307eab39ab6107e8899845ad3d59bd9653f200f220920489ca2b5937696c31836040516113899190611d78565b60405180910390a3505050565b6113a1848484610ef4565b6113ad84848484611639565b6113ec576040517f08c379a00000000000000000000000000000000000000000000000000000000081526004016113e390612a03565b60405180910390fd5b50505050565b606060405180602001604052806000815250905090565b606061141482610d53565b600061141e6113f2565b9050600081511161143e5760405180602001604052806000815250611469565b80611448846117c0565b60405160200161145992919061274b565b6040516020818303038152906040525b915050919050565b61147b838361188e565b6114886000848484611639565b6114c7576040517f08c379a00000000000000000000000000000000000000000000000000000000081526004016114be90612a03565b60405180910390fd5b505050565b60008073ffffffffffffffffffffffffffffffffffffffff166114ee836111ed565b73ffffffffffffffffffffffffffffffffffffffff1614159050919050565b600181111561162d57600073ffffffffffffffffffffffffffffffffffffffff168473ffffffffffffffffffffffffffffffffffffffff16146115a15780600360008673ffffffffffffffffffffffffffffffffffffffff1673ffffffffffffffffffffffffffffffffffffffff16815260200190815260200160002060008282546115999190612a23565b925050819055505b600073ffffffffffffffffffffffffffffffffffffffff168373ffffffffffffffffffffffffffffffffffffffff161461162c5780600360008573ffffffffffffffffffffffffffffffffffffffff1673ffffffffffffffffffffffffffffffffffffffff16815260200190815260200160002060008282546116249190612a57565b925050819055505b5b50505050565b50505050565b600061165a8473ffffffffffffffffffffffffffffffffffffffff16611aab565b156117b3578373ffffffffffffffffffffffffffffffffffffffff1663150b7a02611683610d9e565b8786866040518563ffffffff1660e01b81526004016116a59493929190612b02565b6020604051808303816000875af19250505080156116e157506040513d601f19601f820116820180604052508101906116de9190612b63565b60015b611763573d8060008114611711576040519150601f19603f3d011682016040523d82523d6000602084013e611716565b606091505b50600081510361175b576040517f08c379a000000000000000000000000000000000000000000000000000000000815260040161175290612a03565b60405180910390fd5b805181602001fd5b63150b7a0260e01b7bffffffffffffffffffffffffffffffffffffffffffffffffffffffff1916817bffffffffffffffffffffffffffffffffffffffffffffffffffffffff1916149150506117b8565b600190505b949350505050565b6060600060016117cf84611ace565b01905060008167ffffffffffffffff8111156117ee576117ed611dae565b5b6040519080825280601f01601f1916602001820160405280156118205781602001600182028036833780820191505090505b509050600082602001820190505b600115611883578080600190039150507f3031323334353637383961626364656600000000000000000000000000000000600a86061a8153600a858161187757611876612b90565b5b0494506000850361182e575b819350505050919050565b600073ffffffffffffffffffffffffffffffffffffffff168273ffffffffffffffffffffffffffffffffffffffff16036118fd576040517f08c379a00000000000000000000000000000000000000000000000000000000081526004016118f490612c0b565b60405180910390fd5b611906816114cc565b15611946576040517f08c379a000000000000000000000000000000000000000000000000000000000815260040161193d90612c77565b60405180910390fd5b61195460008383600161150d565b61195d816114cc565b1561199d576040517f08c379a000000000000000000000000000000000000000000000000000000000815260040161199490612c77565b60405180910390fd5b6001600360008473ffffffffffffffffffffffffffffffffffffffff1673ffffffffffffffffffffffffffffffffffffffff16815260200190815260200160002060008282540192505081905550816002600083815260200190815260200160002060006101000a81548173ffffffffffffffffffffffffffffffffffffffff021916908373ffffffffffffffffffffffffffffffffffffffff160217905550808273ffffffffffffffffffffffffffffffffffffffff16600073ffffffffffffffffffffffffffffffffffffffff167fddf252ad1be2c89b69c2b068fc378daa952ba7f163c4a11628f55a4df523b3ef60405160405180910390a4611aa7600083836001611633565b5050565b6000808273ffffffffffffffffffffffffffffffffffffffff163b119050919050565b600080600090507a184f03e93ff9f4daa797ed6e38ed64bf6a1f0100000000000000008310611b2c577a184f03e93ff9f4daa797ed6e38ed64bf6a1f0100000000000000008381611b2257611b21612b90565b5b0492506040810190505b6d04ee2d6d415b85acef81000000008310611b69576d04ee2d6d415b85acef81000000008381611b5f57611b5e612b90565b5b0492506020810190505b662386f26fc100008310611b9857662386f26fc100008381611b8e57611b8d612b90565b5b0492506010810190505b6305f5e1008310611bc1576305f5e1008381611bb757611bb6612b90565b5b0492506008810190505b6127108310611be6576127108381611bdc57611bdb612b90565b5b0492506004810190505b60648310611c095760648381611bff57611bfe612b90565b5b0492506002810190505b600a8310611c18576001810190505b80915050919050565b828054611c2d9061242a565b90600052602060002090601f016020900481019282611c4f5760008555611c96565b82601f10611c6857805160ff1916838001178555611c96565b82800160010185558215611c96579182015b82811115611c95578251825591602001919060010190611c7a565b5b509050611ca39190611ca7565b5090565b5b80821115611cc0576000816000905550600101611ca8565b5090565b6000604051905090565b600080fd5b600080fd5b60007fffffffff0000000000000000000000000000000000000000000000000000000082169050919050565b611d0d81611cd8565b8114611d1857600080fd5b50565b600081359050611d2a81611d04565b92915050565b600060208284031215611d4657611d45611cce565b5b6000611d5484828501611d1b565b91505092915050565b60008115159050919050565b611d7281611d5d565b82525050565b6000602082019050611d8d6000830184611d69565b92915050565b600080fd5b600080fd5b6000601f19601f8301169050919050565b7f4e487b7100000000000000000000000000000000000000000000000000000000600052604160045260246000fd5b611de682611d9d565b810181811067ffffffffffffffff82111715611e0557611e04611dae565b5b80604052505050565b6000611e18611cc4565b9050611e248282611ddd565b919050565b600067ffffffffffffffff821115611e4457611e43611dae565b5b611e4d82611d9d565b9050602081019050919050565b82818337600083830152505050565b6000611e7c611e7784611e29565b611e0e565b905082815260208101848484011115611e9857611e97611d98565b5b611ea3848285611e5a565b509392505050565b600082601f830112611ec057611ebf611d93565b5b8135611ed0848260208601611e69565b91505092915050565b6000819050919050565b611eec81611ed9565b8114611ef757600080fd5b50565b600081359050611f0981611ee3565b92915050565b60008060408385031215611f2657611f25611cce565b5b600083013567ffffffffffffffff811115611f4457611f43611cd3565b5b611f5085828601611eab565b9250506020611f6185828601611efa565b9150509250929050565b611f7481611ed9565b82525050565b6000602082019050611f8f6000830184611f6b565b92915050565b600081519050919050565b600082825260208201905092915050565b60005b83811015611fcf578082015181840152602081019050611fb4565b83811115611fde576000848401525b50505050565b6000611fef82611f95565b611ff98185611fa0565b9350612009818560208601611fb1565b61201281611d9d565b840191505092915050565b600060208201905081810360008301526120378184611fe4565b905092915050565b60006020828403121561205557612054611cce565b5b600061206384828501611efa565b91505092915050565b600073ffffffffffffffffffffffffffffffffffffffff82169050919050565b60006120978261206c565b9050919050565b6120a78161208c565b82525050565b60006020820190506120c2600083018461209e565b92915050565b6120d18161208c565b81146120dc57600080fd5b50565b6000813590506120ee816120c8565b92915050565b6000806040838503121561210b5761210a611cce565b5b6000612119858286016120df565b925050602061212a85828601611efa565b9150509250929050565b60008060006060848603121561214d5761214c611cce565b5b600061215b868287016120df565b935050602061216c868287016120df565b925050604061217d86828701611efa565b9150509250925092565b60006020828403121561219d5761219c611cce565b5b60006121ab848285016120df565b91505092915050565b6121bd81611d5d565b81146121c857600080fd5b50565b6000813590506121da816121b4565b92915050565b600080604083850312156121f7576121f6611cce565b5b6000612205858286016120df565b9250506020612216858286016121cb565b9150509250929050565b600067ffffffffffffffff82111561223b5761223a611dae565b5b61224482611d9d565b9050602081019050919050565b600061226461225f84612220565b611e0e565b9050828152602081018484840111156122805761227f611d98565b5b61228b848285611e5a565b509392505050565b600082601f8301126122a8576122a7611d93565b5b81356122b8848260208601612251565b91505092915050565b600080600080608085870312156122db576122da611cce565b5b60006122e9878288016120df565b94505060206122fa878288016120df565b935050604061230b87828801611efa565b925050606085013567ffffffffffffffff81111561232c5761232b611cd3565b5b61233887828801612293565b91505092959194509250565b6000806040838503121561235b5761235a611cce565b5b6000612369858286016120df565b925050602061237a858286016120df565b9150509250929050565b7f4e487b7100000000000000000000000000000000000000000000000000000000600052601160045260246000fd5b60006123be82611ed9565b91507fffffffffffffffffffffffffffffffffffffffffffffffffffffffffffffffff82036123f0576123ef612384565b5b600182019050919050565b7f4e487b7100000000000000000000000000000000000000000000000000000000600052602260045260246000fd5b6000600282049050600182168061244257607f821691505b602082108103612455576124546123fb565b5b50919050565b7f4552433732313a20617070726f76616c20746f2063757272656e74206f776e6560008201527f7200000000000000000000000000000000000000000000000000000000000000602082015250565b60006124b7602183611fa0565b91506124c28261245b565b604082019050919050565b600060208201905081810360008301526124e6816124aa565b9050919050565b7f4552433732313a20617070726f76652063616c6c6572206973206e6f7420746f60008201527f6b656e206f776e6572206f7220617070726f76656420666f7220616c6c000000602082015250565b6000612549603d83611fa0565b9150612554826124ed565b604082019050919050565b600060208201905081810360008301526125788161253c565b9050919050565b7f4552433732313a2063616c6c6572206973206e6f7420746f6b656e206f776e6560008201527f72206f7220617070726f76656400000000000000000000000000000000000000602082015250565b60006125db602d83611fa0565b91506125e68261257f565b604082019050919050565b6000602082019050818103600083015261260a816125ce565b9050919050565b7f4552433732313a20696e76616c696420746f6b656e2049440000000000000000600082015250565b6000612647601883611fa0565b915061265282612611565b602082019050919050565b600060208201905081810360008301526126768161263a565b9050919050565b7f4552433732313a2061646472657373207a65726f206973206e6f74206120766160008201527f6c6964206f776e65720000000000000000000000000000000000000000000000602082015250565b60006126d9602983611fa0565b91506126e48261267d565b604082019050919050565b60006020820190508181036000830152612708816126cc565b9050919050565b600081905092915050565b600061272582611f95565b61272f818561270f565b935061273f818560208601611fb1565b80840191505092915050565b6000612757828561271a565b9150612763828461271a565b91508190509392505050565b7f45524337323155524953746f726167653a2055524920736574206f66206e6f6e60008201527f6578697374656e7420746f6b656e000000000000000000000000000000000000602082015250565b60006127cb602e83611fa0565b91506127d68261276f565b604082019050919050565b600060208201905081810360008301526127fa816127be565b9050919050565b7f4552433732313a207472616e736665722066726f6d20696e636f72726563742060008201527f6f776e6572000000000000000000000000000000000000000000000000000000602082015250565b600061285d602583611fa0565b915061286882612801565b604082019050919050565b6000602082019050818103600083015261288c81612850565b9050919050565b7f4552433732313a207472616e7366657220746f20746865207a65726f2061646460008201527f7265737300000000000000000000000000000000000000000000000000000000602082015250565b60006128ef602483611fa0565b91506128fa82612893565b604082019050919050565b6000602082019050818103600083015261291e816128e2565b9050919050565b7f4552433732313a20617070726f766520746f2063616c6c657200000000000000600082015250565b600061295b601983611fa0565b915061296682612925565b602082019050919050565b6000602082019050818103600083015261298a8161294e565b9050919050565b7f4552433732313a207472616e7366657220746f206e6f6e20455243373231526560008201527f63656976657220696d706c656d656e7465720000000000000000000000000000602082015250565b60006129ed603283611fa0565b91506129f882612991565b604082019050919050565b60006020820190508181036000830152612a1c816129e0565b9050919050565b6000612a2e82611ed9565b9150612a3983611ed9565b925082821015612a4c57612a4b612384565b5b828203905092915050565b6000612a6282611ed9565b9150612a6d83611ed9565b9250827fffffffffffffffffffffffffffffffffffffffffffffffffffffffffffffffff03821115612aa257612aa1612384565b5b828201905092915050565b600081519050919050565b600082825260208201905092915050565b6000612ad482612aad565b612ade8185612ab8565b9350612aee818560208601611fb1565b612af781611d9d565b840191505092915050565b6000608082019050612b17600083018761209e565b612b24602083018661209e565b612b316040830185611f6b565b8181036060830152612b438184612ac9565b905095945050505050565b600081519050612b5d81611d04565b92915050565b600060208284031215612b7957612b78611cce565b5b6000612b8784828501612b4e565b91505092915050565b7f4e487b7100000000000000000000000000000000000000000000000000000000600052601260045260246000fd5b7f4552433732313a206d696e7420746f20746865207a65726f2061646472657373600082015250565b6000612bf5602083611fa0565b9150612c0082612bbf565b602082019050919050565b60006020820190508181036000830152612c2481612be8565b9050919050565b7f4552433732313a20746f6b656e20616c7265616479206d696e74656400000000600082015250565b6000612c61601c83611fa0565b9150612c6c82612c2b565b602082019050919050565b60006020820190508181036000830152612c9081612c54565b905091905056fea2646970667358221220cc9d1136a108f36a793ae2be4a6ae8a25ecb11335e85b32e201e9f0acab91b7b64736f6c634300080e0033",
  "linkReferences": {},
  "deployedLinkReferences": {}
}